:1000000000000420B5020000DD020000DF02000055
:10001000E1020000E3020000E50200000000000031
:10002000000000000000000000000000E7020000E7
:10003000E902000000000000EB020000ED020000F9
:10004000452B000091F803003DDD0300EF020000A6
:10005000EF020000EF020000492F0000EF02000055
:10006000EF020000EF020000EF020000EF020000CC
:10007000EF020000ADDE0300EF020000EF0200001F
:10008000EF020000F5190000EF020000EF0200008F
:10009000EF020000EF020000EF020000EF0200009C
:1000A000EF020000EF020000EF020000EF0200008C
:1000B000EF020000EF02000000000000000000005E
:1000C000EF020000EF020000EF020000EF0200006C
:1000D00061C90300EF020000EF020000EF02000020
:1000E000EF020000EF020000EF020000000000003D
:1000F00000000000EF02000000000000EF0200001E
:1001000000000000000000000000000000000000EF
:1001100000000000000000000000000000000000DF
:1001200000000000000000000000000000000000CF
:1001300000000000000000000000000000000000BF
:1001400000000000000000000000000000000000AF
:10015000000000000000000000000000000000009F
:10016000000000000000000000000000000000008F
:10017000000000000000000000000000000000007F
:10018000000000000000000000000000000000006F
:10019000000000000000000000000000000000005F
:1001A000000000000000000000000000000000004F
:1001B000000000000000000000000000000000003F
:1001C000000000000000000000000000000000002F
:1001D000000000000000000000000000000000001F
:1001E000000000000000000000000000000000000F
:1001F00000000000000000000000000000000000FF
:1002000010B5054C237833B9044B13B10448AFF350
:1002100000800123237010BDE002002000000000D8
:100220007055050008B5034B1BB103490348AFF3F4
:10023000008008BD00000000E402002070550500A9
:10024000154B002B08BF134B9D46A3F5803A0021A8
:100250008B460F461348144A121A4DF0DEFC0F4B22
:10026000002B00D098470E4B002B00D09847002061
:10027000002104000D000D48002802D00C48AFF307
:1002800000804DF047FC2000290003F033FE4DF0C4
:100290001BFC00BF0000080000000420000000005C
:1002A00000000000E0020020543D0120000000009A
:1002B000000000000649074A074B9B1A03DD043B78
:1002C000C858D050FBDC03F0D5FFFFF7B9FF0000A2
:1002D000E055050000000020E0020020FEE7FEE7F8
:1002E000FEE7FEE7FEE7FEE7FEE7FEE7FEE7FEE7E6
:1002F000074B1B5C1F2B8ABF064A4FF0A04203F03E
:100300001F03D2F80405D840C04300F00100704735
:10031000ACF5040000030050074B1B5C1F2B86BF8D
:1003200003F01F0305494FF0A041012202FA03F335
:10033000C1F80C35704700BFACF504000003005055
:10034000074B1B5C1F2B86BF03F01F0305494FF0B3
:10035000A041012202FA03F3C1F80835704700BF3B
:10036000ACF50400000300504FF0A04310B44FF46C
:1003700080404FF400544FF400414FF48032C3F8F2
:100380000845C3F80805C3F80815C3F808255DF843
:10039000044B70474FF0A04310B44FF480404FF42B
:1003A00000544FF400414FF48032C3F80C45C3F8B9
:1003B0000C05C3F80C15C3F80C255DF8044B704709
:1003C0000A4B195C1F298ABF09484FF0A04001F071
:1003D0001F01D0F8043501228A4022EA03011340AC
:1003E000C0F80815C0F80C35704700BFACF5040024
:1003F000000300500B2809D00C2809D0182809D078
:1004000019280CBF03204FF0FF30704700207047C1
:100410000120704702207047C20730B40ED4830712
:100420000AD54FF0A0430C22C3F82C27C3F830277D
:10043000C3F86027C3F8642730BC70474FF0A0436F
:100440000322C3F834274FF40055C3F838274FF47C
:100450008044C3F83C274FF40041C3F840274FF4D1
:100460008032C3F80855C3F80845C3F80815C3F827
:100470000825D4E7704700BF00B583B0044B009354
:10048000044A402300F036F803B05DF804FB00BFD7
:10049000990400000003002002B32DE9F843114B3A
:1004A000114E8846144643F00109032700252246D1
:1004B00008EB0501002003F093FD03461D444FF4B3
:1004C0007A40E41A23B9337833B1C847013F06D0E4
:1004D00001233370002CEAD1BDE8F88370473770F0
:1004E000BDE8F883B0F50400FC020020704700BFAF
:1004F00003F090BEF0B595B0002415460F460846AF
:100500001E4602F0C3F8384623460895082205A97E
:100510001A9D09960D950A948DF82C400C9402F0C2
:100520000FF99DF814308DF81140DDE9061003F045
:100530000302012ACDE9020127D0022A04D038465D
:1005400002F0A8F815B0F0BDBDF81650C3F3C20311
:100550008DF81030AD090826082D2C4628BF082438
:10056000334622460EA9384602F0EAF82D1B2146F2
:1005700008AB02AA0EA8264400F0A0FB002DEBD188
:10058000384602F087F815B0F0BDBDF81460059D3F
:10059000C6F38316C3F3C204B2000EA9384608237B
:1005A0008DF81040C5F3952502F0CAF808AB324625
:1005B00028460EA9009302AB00F0DAFA384602F0A2
:1005C00069F815B0F0BD00BF08B5FFF791FF042131
:1005D000034800F083FA034B01225A7108BD00BFA3
:1005E000B455050000000020F0B5324C85B004F58C
:1005F000836001F069FB04F2144001F065FBD4E96B
:10060000013703EA0702D01C04EB800114F8200034
:1006100010F0040044D003F1020C0E7806F003063B
:10062000012E654635D0022E02F1030621D004EBDF
:1006300086010028F1D104EB82020133D2680192D5
:100640003B4004EB830302F00302012ADE6829D059
:10065000022A23D1BDF806309B090333360C05EB83
:100660009305154801F03CFB00B16560304605B0CC
:10067000F0BD4B880CEB931307EA0302D11C03F186
:10068000020C14F82100654604EB810100F004001F
:10069000CFE70B88C3F383136344EDE70026E0E75D
:1006A0009D1CC8E7BDF80430C3F38313360C1D440A
:1006B000D7E700BF10040020240800200B4B0C4893
:1006C00010B50022FF21C3F818249960C3E9002265
:1006D000C3F8142483F8202401F094FF044610B9D1
:1006E000044802F061F8204610BD00BF100400204D
:1006F000C4550500D4F5040021B9124B03EBC0002A
:1007000000687047104A0F49521AD20815D030B409
:100710000E4D2B88834212D0002303E035F823408E
:10072000844205D001339A42F8D1002030BC704792
:1007300001EBC300006830BC7047104670470846A4
:10074000F8E700BF74550500B4550500E00200202D
:10075000094B013903EBC00003290BD8DFE801F096
:1007600002080604022070474079704700797047FC
:100770000420704700207047745505002DE9F843A8
:10078000DFF8D890074600208846D9F8084000F0E6
:10079000D1FFD9E90132D9F80060134401339B1B22
:1007A000012B56D809F21C450121284601F074FAA4
:1007B000FFF71AFF0146284601F06EFAD9E9013227
:1007C000D9F80010134401335B1A012BECD90A400D
:1007D000033205230231002049F82230C9F8001005
:1007E00000F0B0FF00211C4801F04CFA80F310002B
:1007F000731C234009EB830300043440033440EAB4
:100800001740D86019F8243067F3C50309F824307D
:1008100039F824306FF3891329F8243059F824204B
:1008200068F39F221346012161F301036FF38203F2
:1008300049F8242009F8243099F820341BB906E03F
:1008400000F00EF818B1D9E900329A42F8D1BDE8AB
:10085000F8833146BBE700BF2C08002010040020BD
:100860002DE9F047914C002384B0C4F81834BFF34D
:100870004F8FD4E9015605EA0602D31C04EB83012D
:1008800014F82330580719D527680B7803F00303B1
:10089000012B43D0022B03D14B88023505EB931576
:1008A00006EA0502D4F81804D31C04EB830128B926
:1008B000AF4239D914F823305B07E6D404EB820247
:1008C0006B1CD2680192334004EB830302F00302F5
:1008D000DB680293022A05F1020700F08980012AF1
:1008E00026D0D4F810543DB12B6828469B68984711
:1008F000EB681D68002DF7D16D486E4B6E49C01A2C
:10090000C008000440F00200FFF738FFD4E90030CF
:10091000C01A18BF012004B0BDE8F0870B8802356B
:10092000C3F383131D44BBE7676004B0BDE8F087E1
:10093000BDF804206148C2F38313062B28BF0623A9
:1009400063F3891202339900ADF8042001F05CFED4
:1009500080460028C5D001F099FE0023082201A995
:10096000404601F0B9FEBDF8043013F4707F00F08A
:100970009B806FF0010AAAEB050A082506EA070129
:1009800003312B46042204EB8101404601F0A4FE12
:10099000BDF8043007F101090AEB0902C3F3831320
:1009A00093424F4605F10405E8D8D4F81834002BDB
:1009B00064D1D4F8105465B1EB685A7928464146A1
:1009C000002A57D02B681B689847EB681D68002DDC
:1009D000F2D1404601F05EFE002000F0ABFED4F8FC
:1009E00018340BB9C4F80490002000F0ABFE8DE77A
:1009F000BDF8063031484FEA93194D46502D28BFB7
:100A0000502565F38F1305F10801ADF8063001F0AC
:100A1000FBFD804600283FF464AF26EA070A0AF18E
:100A2000010A01F033FE4FEA8A0A0023082201A9D5
:100A3000404601F051FE55452BD9EBB2BAF1000FFB
:100A400020D006EA0701A3EB0A03033104EB81017E
:100A5000DDB252460823404601F03EFE2A460AF126
:100A600008031749404601F037FE09F1030907EB77
:100A700099099AE71D68002D9ED1AAE7404601F02A
:100A800009FE43E72A4608230D49404601F024FEAB
:100A9000EBE706EA0701033104EB81012A4608234C
:100AA000404601F019FEE0E7B9467EE71004002059
:100AB0008455050074550500E0F50400C455050093
:100AC0001C040020044BD3E900239A4201D0FFF715
:100AD000C7BE0020704700BF1004002030B4184D7E
:100AE000D5F8104400215CB1E3681A798A4204D138
:100AF00016E0DB681A798A4212D01B68002BF8D105
:100B0000C3681971D5F8103493B1DA68C3681268F4
:100B10001A60D5F81034DB68186030BC084670479E
:100B200001310A29DFD14FF0FF31084630BC704750
:100B3000C5F81004C2681360084630BC704700BF97
:100B40001004002038B5094BD3F81044012583F870
:100B500020544CB1E3685D71236820465B68984778
:100B6000E3681C68002CF5D138BD00BF10040020DC
:100B70002DE9F04784B01D460C9C002394F80C80AE
:100B80002373EB8881460E461746002B40D1297A05
:100B900005290ED06B7AA88873BB404B53F821A06F
:100BA0000021FFF7A9FD524603463D49204601F0CA
:100BB00003F9062F09D8DFE807F0046A4249525DBD
:100BC00033004946204601F0F7F82B7A052B05D073
:100BD0006B7A5BB93349204601F0EEF8204601F00C
:100BE000DFF884F80C8004B0BDE8F0872E4A2F4966
:100BF000204601F0E1F8EDE7FFF7AAFD2C4B2B4969
:100C000053F82020204601F0D7F8297AA888C4E7B5
:100C1000254A00922749284A204601F0CDF8B6E738
:100C2000D6E90410D6E900230390D6E90207029121
:100C3000CDE900074946204601F0BEF8C5E7494620
:100C4000D6E90023204601F0B7F8BEE7B168D6E93F
:100C5000002320460091494601F0AEF8B5E7D6E9F9
:100C60000201D6E90023019100904946204601F097
:100C7000A3F8AAE7D6E90371B068D6E90023029188
:100C8000CDE900074946204601F096F89DE7326815
:100C90004946204601F090F897E700BF68F6040047
:100CA0005CF60400FC1A050050F6040058F6040037
:100CB000F8F5040038F6040030F60400082900D9DD
:100CC00070472DE9F04F1D46904600232A7B2B7379
:100CD00085B0B8F80630039207460E46002B7BD14C
:100CE00098F80810052911D098F80930B8F80400D0
:100CF000002B63D13C4B53F821400021FFF7FCFC53
:100D0000224603463949284601F056F8DFF8FCB080
:100D1000DFF8FC90002405E03A5D013401F04CF866
:100D2000082C09D0A64249462846F5D85946013430
:100D300001F042F8082CF5D12D49DFF8D8B0DFF8E2
:100D4000D890284601F038F800240CE017F804A0E9
:100D5000BAF17E0F23D92E2249462846013401F0EC
:100D60002BF8082C08D0A642F0D859462846013462
:100D700001F022F8082CF6D198F80830052B02D0A3
:100D800098F80930A3B91B49284601F015F8284600
:100D900001F006F8039B2B7305B0BDE8F08F4CF013
:100DA000E1FE50445246437813F0970FD3D0D3E777
:100DB000114A1249284600F0FFFFE4E7FFF7C8FC9C
:100DC0000F4B0E4953F82020284600F0F5FF98F805
:100DD0000810B8F804008DE7074A009209490A4A4A
:100DE000284600F0E9FF7BE768F604005CF60400A3
:100DF00028F60400FC1A050050F6040058F604001A
:100E0000F8F5040038F6040030F6040024F6040077
:100E10001CF6040064F604002CF6040070B51A4BAE
:100E20001D789DB1194B1C682378C0B2984210D030
:100E300004F10802002306E014F83310814216463C
:100E400002F1080206D001339D42F5D100231B7840
:100E5000FFDE264602F068F87378A3F10103B3FAC7
:100E600083F35B09834200D070BD094BD3E90023B3
:100E70001343F9D1074B0848196800224908BDE817
:100E8000704000F0E5BB00BFCC0800202009002026
:100E9000F8080020D0080020D80800202DE9F04FE5
:100EA000974E337885B0002B00F02581954F964DF5
:100EB000DFF8608200244FF00109D7F800B01BF87A
:100EC000340002F031F80BEBC4031BF834B05B784C
:100ED0004FEA5B0C1BF0010E15F80C10A3F1010397
:100EE000B3FA83F314BF0A0901F00F025B09042A65
:100EF00000F2BB80DFE802F08ABB5B400300834264
:100F000000F0D680BEF1000F0CBFF0230F23307825
:100F1000194005F80C10A8B1D7F800C09CF80030B3
:100F20005B4500F0DE800CF10802002304E01CF8B1
:100F30003310594500F0D68001338342964602F1C2
:100F40000802F4D10020039000F0F4FBABF1200282
:100F5000CBF1200329FA03F309FA02F21A4309FA42
:100F60000BF103920291D8E90023DDE9020122EAA4
:100F7000000023EA010171E0834232780CD0BEF117
:100F8000000F0CBFF0230F2303EA01030CBF042161
:100F90004021194305F80C10013494428DDBD8E947
:100FA0000023134340F0938005B0BDE8F08F8342E7
:100FB0006FD1BEF1000F14BF0F23F02303EA01032A
:100FC000327814BF30210321194305F80C10002A90
:100FD000E5D0D7F800C09CF800305B4500F08E806B
:100FE0000CF108010023013393428E4601F1080100
:100FF000D2D01CF833005845F5D1DEF80430002B70
:10100000CAD05846012198473278C5E783422CD18F
:10101000BEF1000F0CBFF0230F2303EA01030CBF46
:101020000121102119430020019005F80C1000F057
:1010300081FBABF1200309FA03F301930198CBF193
:10104000200129FA01F1084309FA0BF101900091FE
:10105000D8E90023DDE900011043194302460B469D
:101060000020C8E9002300F06DFB327894E783424A
:1010700013BF0023202302221A46BEF1000F12BF25
:101080000F20F020134601400B4305F80C30327856
:1010900082E7BEF1000F0CBFF0230F2303EA010328
:1010A0000CBF01211021194305F80C10327873E7A9
:1010B000BEF1000F14BF0F23F02303EA010314BF96
:1010C00030210321194305F80C10327864E70F4BE7
:1010D0000F4819680022490805B0BDE8F04F00F03C
:1010E000B7BAE646DEF80430002B3FF42BAF002100
:1010F0005846984726E7DFF81C8050E7E6467CE72D
:10110000CC0800202009002000090020D008002081
:10111000D8080020F8080020092A40D9F0B583B08B
:101120000E460546144601F089FD002831D0204ABC
:101130002049214B15600E70202200211F481C60A1
:101140004CF06BFD1E4B00200021741EC3E9000112
:10115000E4B236B305EBC4041A4E083D032701E0A0
:10116000A5421ED09DF8063020788DF8047003F05B
:10117000FC036FF382038DF80630A3788DF80530F9
:10118000324601A901F064FD083C0028E8D003B014
:10119000F0BD01F009FD0028C9D003B0F0BD072063
:1011A0007047094A0948002100F044FA03B0F0BD35
:1011B00020090020CC080020D008002000090020D1
:1011C000F80800201D0E00009D0E0000D4F604005B
:1011D00070B5084D2B785BB1074E002433680121B0
:1011E00013F8340001F024FE2B780134A342F5D823
:1011F000002070BDCC0800202009002000B585B07B
:1012000000230390194601AA44F20100CDE90133FD
:1012100000F004F805B05DF804FB00BF10B572B62D
:10122000FFF790FCFFF74EFC0028FBD1104B114C50
:101230001149E41AE408240444F00100FFF79EFA7F
:101240000E4B1B68DB0700D500BE44F002000C49C2
:10125000FFF794FABFF34F8F0A490B4BCA6802F4A9
:10126000E0621343CB60BFF34F8F00BFFDE700BFC9
:101270007455050084550500E4F60400F0ED00E027
:10128000F0F6040000ED00E00400FA05D0E90223C6
:10129000D1E90201994208BF90422CBF01200020F1
:1012A000704700BF2DE9F04F87B0039000F060FB5E
:1012B00040B19B49D1E9002312F1807443F100054C
:1012C000C1E9004500210398964C00F06DFB60B128
:1012D000236853B1944B25681B7823B11DB12B7F34
:1012E000002B40F02D81002323600121039800F0A2
:1012F0005BFB002840F0F38005A98C4800F084FCDB
:1013000018B38B4E884F894D0378012B00F0C680AF
:10131000C0F0CC80022B0ED130464FF0000801F017
:1013200065FA30B180F81C80304601F05FFA002881
:10133000F8D101233B7005A9284600F093FC05A9CC
:10134000284600F061FC0028DED1794E794FDFF8A5
:10135000D09103E00D2855D000232360304601F0E2
:101360004BFA2368002800F0B48063B12368D0E909
:101370000201D3E90223994208BF90423BD223687D
:101380001B7F002B7FD1304601F030FA0546D5E9AE
:1013900002233846CDE9002300F018FBD9E90023E9
:1013A000DFF8948112EB000A43F1000BD8E9002327
:1013B0009B4508BF924503D21AF1807A4BF1000B8E
:1013C000DDE90001B0EB0A0061EB0B01012871F1CE
:1013D000000313DBDFF864A1504559D8AA684FF425
:1013E00096030021384600F03DFA0028B2D1236868
:1013F000002B67D0256007B0BDE8F08F002138468C
:1014000000F0C6FA484B1B78002BA5D02B7F002B91
:10141000A2D0384600F0DAFAD8E90023D9E900ABC7
:10142000CDE900231AEB00024BF1000310461946E8
:10143000DDE90023994208BF904203D210F1807089
:1014400041F10001D5E90223994208BF904261D3DE
:101450002B6903B92B77D5E905309847296900290D
:101460003FF47AAF2B7F002B3FF476AFD5E9022310
:1014700012EB010A43F1000BC5E902AB29463046E5
:1014800001F0A0F968E72168304601F09BF97AE79E
:10149000384600F09BFA00EB0A02A0E74168236897
:1014A000994213D0304601F0ABF944E743681A7F04
:1014B000002A7FF440AF01221A774168304601F0DC
:1014C00081F938E7039800F09FF993E70023236040
:1014D00031E7002B8FD1039800F09AF98BE715487C
:1014E000DFF8548000F072FA0D4BD3E90067D8E9B9
:1014F000002316EB000947F1000A9A4508BF914501
:101500004846514603D219F180704AF10001C8E9FA
:101510000001F1E62946304601F054F91CE700BF0E
:1015200028090020A8090020300900208C0900208B
:1015300004F7040008000020A0090020FFFFB40009
:101540001D4800F043FA1D4A1D4BD2E90067D3E95C
:10155000002316EB000847F10009994508BF9045A4
:101560004046494603D218F1807049F10001D5E99F
:101570000223994208BF904219D32B6903B92B77F4
:10158000D5E905309847296900293FF4ACAE2B7F97
:10159000002B3FF4A8AED5E90223561843F100070B
:1015A000C5E902672946074801F00CF99BE6294680
:1015B000044801F007F996E60800002028090020F9
:1015C000A009002004F7040010B5134B13491B6851
:1015D000134882B058220193082300F0C1FA044650
:1015E00010B1204602B010BD0E4A0F4801A900F00C
:1015F000B3F804460028F4D101210B4800F0AEF9FD
:1016000001231946094A084800F006F9084B01224F
:1016100020461A7002B010BD00F704003409002003
:101620008C090020A512000008000020FFFF7F00A9
:10163000300900204AB1A1F101010368B1FA81F13A
:101640004909C3E90412002070470720704700BF12
:10165000037F0BB1002070472DE9F048826182B012
:1016600004461F480D4600F0B1F91E4B1E49D3E950
:101670000023D1E9006712EB000B43F1000CBC45DD
:1016800008BFB34503D21BF1807B4CF1000C1BEB70
:10169000050221694CF10003C4E9022379B901A9CB
:1016A000124800F075FA88B100254460057001A960
:1016B0000E4800F099FA68B902B0BDE8F0882561DB
:1016C00001A90A4800F064FA0028EDD1042002B014
:1016D000BDE8F088024800F07DF92846ECE700BF3D
:1016E0000800002028090020A00900208C09002003
:1016F00030B5002583B00446057701A90B4800F0FA
:1017000047FA78B101234460037001A9074800F04B
:101710006BFA08B903B030BD054800F05BF9284604
:1017200003B030BD042003B030BD00BF8C090020E1
:101730000800002072B6024A136801331360704734
:10174000AC090020034A1368013B136003B962B679
:10175000704700BFAC090020F8B5234E4579234CF3
:10176000234F0346234847F82520801B04EBC5067A
:10177000C0083679000486BB1A680D88C2F808557F
:1017800093F904208978002A1FDB02F1604202F5F8
:1017900061424901C9B282F8001393F90420164F3F
:1017A0001649012602F01F05520906FA05F547F809
:1017B00022505A7904EBC20540F003002E7144F820
:1017C0003230FEF7DBFF0020F8BD0D4D02F00F02B6
:1017D00049011544C9B22976DFE740F00200094902
:1017E000FEF7CCFF0820F8BD74550500B0090020B5
:1017F000B80900209455050000E100E04CF7040012
:10180000FCEC00E028F70400036801221A6070472E
:10181000036801225A607047F0B404684FF48035C1
:101820008D40C4F8085306688C00C6F8485304F588
:10183000A0740668A4B20027375182B036590468F4
:10184000019601F5A87122F07F42019E44F8212003
:101850000268C2F8445313B10368C3F8045302B0DA
:10186000F0BC70472DE9F04788464FF48037016897
:1018700007FA08F7C1F848730168C1F8087306460B
:1018800000684FEA88040119D0F80455D1F84005E2
:10189000C1F8405504F5A074A4B231684FF00009B6
:1018A00041F8049082B0401B0959009120F07F401C
:1018B00001289A4622F07F45009B0BD1264B4FF41E
:1018C000806043F001039847336843F804901B5944
:1018D0000193019B3368D3F80445C3F844732B1B71
:1018E00023F07F43012B08F5A87817D130681A4BF5
:1018F000013540F8285043F001034FF480609847C9
:101900003268D2F804359C4222D1C2F8447333685D
:101910000020C3F8047302B0BDE8F087336843F8D1
:1019200028503268D2F804156B1ACAF1FF1A013B2D
:101930000AF57F4A23F07F439A4509D3002BE4D16F
:10194000013542F828503268D2F804359942DCD08B
:101950000D2002B0BDE8F08720F7040002680223E2
:10196000C2F8443311B10268C2F80433704700BFB3
:101970000368D3F8040150B1002282B0C3F80421F7
:10198000D3F804310193019B012002B070477047E6
:101990004FF48033026803FA01F1C2F84813036878
:1019A000C3F80813704700BF890001F5A07189B220
:1019B0000368585840B100225A5082B05B580193D6
:1019C000019B012002B07047704700BF0368D3F845
:1019D0000405704790F9043005485A09403203F075
:1019E0001F03012101FA03F340F82230704700BFC2
:1019F00000E100E0024A034B10681B68184700BF73
:101A0000B0090020B80900200A4830B4002201259E
:101A1000510902F01F0350F8214005FA03F3013287
:101A20002343592A40F82130F2D1034B1D70002086
:101A300030BC7047BC090020C8680020F8B52A4BAC
:101A40001C780CB92046F8BD00FB01F14B1EB3F524
:101A5000306F2DD220292ED800242346234F02E0B8
:101A6000592B144424D03F2B38D94F2B38D9532B22
:101A70008CBF4FF430624FF400725D0903F01F0613
:101A800057F8251021FA06F010F0010003F10103C8
:101A9000E6D0174B01201C4400FA06F621EA0606A0
:101AA0002046002147F825604CF0B7F82046F8BDE5
:101AB00000242046F8BD4029CED9B1F5807F03D857
:101AC0004FF480544023C9E7B1F5007F8BBF4FF43A
:101AD00020544FF4005454235023BFE74022CCE756
:101AE0004FF48072C9E700BFC8680020BC0900201D
:101AF000C8090020174B1B782BB320B3002210B469
:101B00001346154C0DE03F2B1ED94F2B1ED9532BDE
:101B10008CBF4FF430614FF400710133592B0A44EC
:101B20000ED0A1188842EED158090C4903F01F03CA
:101B300051F82040012202FA03F3234341F82030F8
:101B40005DF8044B704770474021E6E74FF4807121
:101B5000E3E700BFC8680020C8090020BC090020D6
:101B600099B110B4B2FBF3F403FB1424A4B244B94A
:101B7000C0E9001484608281C38120465DF8044B73
:101B8000704709205DF8044B70470E20704700BF76
:101B900030B482B050E8013F9DB2C48925448489A5
:101BA000A54228BF2D1B0489A54202BFBFF32F8F7A
:101BB000002207E0C5EA030540E80154002CE9D102
:101BC0004FF001028DF803200193019B9DF8032043
:101BD0000B602AB10B880068184402B030BC704713
:101BE00002F0FF031846F8E70A884B889A4201D0B2
:101BF0000020704750E8012FC2EA024240E801236A
:101C0000002BF7D10120704730B482B050E8023F7A
:101C10001FFAA3F5C488A54202BFBFF32F8F00228D
:101C20000DE0C48925448489A54228BF2D1BC3EA41
:101C3000054540E80254002CE8D14FF001028DF830
:101C400003200193019B9DF803200B602AB14B8870
:101C50000068184402B030BC704702F0FF03184619
:101C6000F8E700BF0A884B889A4201D000207047ED
:101C700050E8022FC2EA224240E80223002BF7D1AB
:101C80000120704750E8002F0B4640E8003C9CF0D4
:101C9000000FF7D11046704750E8003F03EB0102F8
:101CA00040E8002C9CF0000FF6D11046704700BFB2
:101CB00050E8003FA3EB010240E8002C9CF0000F2D
:101CC000F6D11046704700BF012350E8002F42EACA
:101CD000030C40E800C191F0000FF6D16046704758
:101CE000002350E800CF0CEA030240E8002191F005
:101CF000000FF6D160467047B8B130B4D0E9011298
:101D0000521A0468D2B2531E2160DBB242B101689C
:101D10000A685C1E551C0D601370E3B2FF2BF6D1F0
:101D200003680020187130BC70470E20704700BF58
:101D300038B504460020FFF7FDFCD4E900311A68ED
:101D40008A4215D9511E19602168A3680868258A3E
:101D500012F8012CE4681B1A0879DBB2984205FBE3
:101D6000024400D20B710020FFF7ECFC204638BD86
:101D70000024F8E738B5054600200C46FFF7DAFCEA
:101D80002A681368591C1160E9682A8A641AB4FB2E
:101D9000F2F41C700020BDE83840FFF7D3BC00BF50
:101DA000826842B110B504464369016800699847EA
:101DB0000023A36010BD70470EB400B582B0039934
:101DC00029B102AA04AB42F8043D00F0A9F802B020
:101DD0005DF804EB03B070472DE9F04F924683B0F5
:101DE00051450F4605461E46DDE90CB2C0F0928013
:101DF0000B464FF00108B3FBFAF39A4508F10108CE
:101E0000F9D9B04538BFB04612F00109A96802D12E
:101E1000BBF1000F54D1012402E0013E0AFB04F49F
:101E2000012EFAD8B7FBF4F08245F7D93B4E02E019
:101E3000A968B7FBF4F0335C2A680A2B04FB10771F
:101E400002EB010E01F1010029D0A8608EF80030EC
:101E5000D5E90131994202D32846FFF7A1FFB4FB2F
:101E6000FAF4002CE4D1B9F1000F15D0BBF1000F4A
:101E700012D0C34510D92024AB682A68591CA96028
:101E8000D454D5E901329A420BF1FF3B14D2BBF195
:101E9000000F01D0C345EFD103B0BDE8F08FA860BB
:101EA0004FF00D005054D5E9011088421DD2296829
:101EB00001EB000E0130C8E72846FFF771FFE6E7A7
:101EC000930722D42024C345A5D92B684A1CAA60B5
:101ED0005C54D5E9013199420BF1FF3B10D2BBF1C3
:101EE000000F98D0C345F0D195E728460193FFF73E
:101EF00057FFAA682968019B501C01EB020EA4E75A
:101F00002846FFF74DFFA968E9E7002E0CBF3024F3
:101F10002024D8E74FF0010873E700BF6CF70400F6
:101F2000002900F0B9822DE9F04F054687B09146AF
:101F30000C460E78DFF8C8A64FF00D0B13E0AB6827
:101F400028680A2E03F1010200EB030100F04B8226
:101F5000AA600E70D5E901329A4280F01B81267882
:101F6000002E00F01E810134002E00F01A81252E73
:101F7000E5D12346002713F8012B2D2A00F0E3803A
:101F8000302A00F0E4802B2A00F0D4802A2A00F0C6
:101F90000D81A2F13006F1B2092903D97DE2A1F148
:101FA00030060346184606EB860110F8012BA2F115
:101FB0003004092C02EB4101F1D92E2A00F00281F4
:101FC0004FF00008013301E013F8012B02F0FB0190
:101FD00068291C46F8D0253A532AC0D801A353F8E3
:101FE00022F000BFCF2300005F1F00005F1F000032
:101FF0005F1F00005F1F00005F1F00005F1F0000E9
:102000005F1F00005F1F00005F1F00005F1F0000D8
:102010005F1F00005F1F00005F1F00005F1F0000C8
:102020005F1F00005F1F00005F1F00005F1F0000B8
:102030005F1F00005F1F00005F1F00005F1F0000A8
:102040005F1F00005F1F00005F1F00005F1F000098
:102050005F1F00005F1F00005F1F00005F1F000088
:102060005F1F00005F1F00005F1F00005F1F000078
:102070005F1F00005F1F00005F1F00005F1F000068
:102080005F1F00005F1F00005F1F00005F1F000058
:102090005F1F00005F1F00005F1F00005F1F000048
:1020A0005F1F00005F1F00005F1F00005F1F000038
:1020B000B32300005F1F00005F1F00005F1F0000D0
:1020C0005F1F00005F1F00005F1F00005F1F000018
:1020D0005F1F00005F1F00005F1F0000572100000E
:1020E000392300005F1F00005F1F00005F1F00001A
:1020F0005F1F0000392300005F1F00005F1F00000A
:102100005F1F00005F1F00005F1F00005F1F0000D7
:10211000A12200005F1F00005F1F000019220000C5
:102120005F1F0000FD2100005F1F00005F1F000017
:10213000B323000047F004071C46234613F8012B85
:102140002D2A7FF41DAF47F001071C46F5E747F045
:1021500002071C46F1E7D9F800301A1DC9F8002023
:102160001E78AB680A2E0CD12A68591CA96002F8A7
:1021700003B0D5E90123934203D32846FFF710FEAD
:10218000AB682A68591CA960D654D5E901329A4235
:10219000FFF4E5AE2846FFF703FE2678002E7FF415
:1021A000E2AE2B7B23BB07B0BDE8F08FD9F800204F
:1021B000111DC9F80010166862782E2A04F1020079
:1021C0007FF4FEAE5A78A2F13003092B00F2BD81F4
:1021D0004FF0000808EB880802EB480810F8012FC0
:1021E000A2F13003092BA8F13008F3D90346E9E640
:1021F000284607B0BDE8F04FFFF7D2BDD9F8003050
:102200001A1DC9F8002019680197434600960A2252
:102210002846FFF7E1FDA2E6D9F800301A1DC9F8FB
:102220000020D3F80080FB0700F1E880B8F1000F30
:1022300000F0A18140464CF005F90746BE4215D991
:10224000A6B1202100E08EB1AA682B68501CA860BE
:102250009954D5E901329A4206F1FF3604D3284653
:102260000391FFF79DFD0399BE42ECD108F1FF38C1
:1022700018F8016F002E3FF472AEAB6828680A2E82
:1022800003F1010200EB030100F09081AA600E70DF
:10229000D5E901329A42EBD32846FFF781FDE7E703
:1022A000D9F80020131DC9F80030AB6829681768F9
:1022B000581C3022A860CA54D5E90123934280F00B
:1022C000E6802A68581C7821A860D154D5E90123FA
:1022D000934280F0D7800F2F03D93A4612090F2A74
:1022E000FCD84FF080560DE0AA6081F80080D5E957
:1022F00001329A4202D32846FFF752FD36093FF4D5
:102300002EAEAB68B7FBF6F21AF802802868B8F177
:102310000A0F06FB127700EB030103F10102E3D180
:10232000AA6000F803B0D5E901329A4280F04981F1
:102330002B6899180132D7E7D9F800301A1DC9F86F
:102340000020196881EAE173A3EBE173092B40F3E4
:102350000E81AA480122A0FB03C3DB08092B02F16E
:102360000102F8DC4245134638BF4346039307F0A9
:102370000203002E40F09580002B00F0B780B8F1EA
:10238000000F00F0F680F80740F1B0800029C0F29D
:10239000FF807A0700F1C88007F00303022B00F0EA
:1023A000A780CDE9006743460A222846FFF714FDBF
:1023B000D5E5D9F800301A1DC9F800201968019731
:1023C0004346009610222846FFF706FDC7E5AB6896
:1023D0002A68581C2521A860D154D5E901329A42B7
:1023E000FFF4BDADD6E6AA6000F803B0D5E901322E
:1023F0009A423FD2296811440132A9E54146A1EB36
:10240000080311F8017BD7B1AB68D5F800C00A2FDB
:1024100003F101020CEB030000F0AF80AA6007702B
:10242000D5E901329A42EAD328460391FFF7B8FC76
:102430000399A1EB080311F8017B002FE4D19E4220
:102440007FF68DAD202702E0002E3FF488ADA9680D
:102450002A68481CA8605754D5E90121914206F129
:10246000FF3604D328460393FFF79AFC039BB3423D
:10247000EAD174E52846FFF793FCAB6829685A1C3B
:10248000194465E52846FFF78BFCAB6823E728462F
:10249000FFF786FCAB6814E7704718460026234612
:1024A0008BE5002920DB7A071ED41BB1B8F1000FA1
:1024B0003FF46CAFF8073FF569AFBEB1039BB34281
:1024C000BFF464AF2023AA68501CA8602868835416
:1024D000D5E90102824206F1FF3640D236B1039AB5
:1024E000B242F0D1164651E7013EDEE700264DE745
:1024F000B8F1000F7FF455AF002E6AD0039BB342B2
:10250000BFF44FAF3023AA68501CA86028688354DA
:10251000D5E90102824206F1FF3618D2002E58D0CA
:10252000039AB242EFD13CE7AA68531CAB602B6818
:102530002B209854D5E901329A42FFF42DAF28465A
:102540000491FFF72DFC049926E7034638E5284659
:10255000CDE90413FFF724FCDDE90413DEE7284688
:10256000CDE90413FFF71CFCDDE90413B6E70122F3
:10257000F8E646460AE7474660E6AA600CF803B06C
:10258000D5E901329A4226D22B689818013245E7E4
:10259000AA68531CAB602B682D209854D5E90132F2
:1025A0009A42C1F10001FFF4F7AEC8E7AA6000F853
:1025B00003B0D5E901329A4217D229681144013299
:1025C00064E62846FFF7ECFBA9682B684A1C19440F
:1025D0008AE60026E5E628460391FFF7E1FBA868B6
:1025E0002B680399421C184418E72846FFF7D8FBCC
:1025F000AB6829685A1C194448E600BFCDCCCCCC46
:102600006CF70400FFF778BB2DE9F041058ACE1C7A
:10261000043D2E440746B6FBF5F6FFF789FB78B379
:10262000F6B24FF48073013E0446C5800760838094
:1026300027D08046002509E06379AE4203F101030B
:102640006371C8F80000076080461AD03846FFF76B
:102650006FFB01350028EFD16679721E14D0234636
:10266000013082421B68FBD11F684EB100252368F0
:102670002146013538461C46FFF77CFBAE42F6D1B9
:1026800000242046BDE8F0812768EFE704300121EF
:10269000FFF702BBF8B5012104460430FFF708FB41
:1026A000C0B200B1F8BD6679721E12D02346013067
:1026B00082421B68FBD11F68002EF3D000252368DF
:1026C0002146013538461C46FFF754FBAE42F6D191
:1026D000F8BD2768F2E700BF2DE9F843C7884679BF
:1026E00007FB06F6043E02EB030C0446664503F1C5
:1026F000040015468846B0FBF7F238BFF51A07FB11
:10270000120012B1013A2468FCD13E1AAE4228BF31
:102710002E469DB14FF000090430AD1B20443246D7
:1027200008EB09014BF055FAAF42B14424683E462C
:102730004FF0000028BF2E46002DEDD1BDE8F883F4
:102740002DE9F843C7884679154607FB06F6043E8F
:1027500005EB030C1A1D664504468846B2FBF7F0EC
:1027600038BFF51A07FB102110B101382468FCD1DD
:102770007E1AAE4228BF2E469DB14FF000090431AB
:102780002144AD1B324608EB09004BF022FAAF4260
:10279000B14424683E464FF0000128BF2E46002D6C
:1027A000EDD1BDE8F88300BF8268002393608268A2
:1027B0001361826853618268D36082685360826863
:1027C0001360704770B54468064620680D4618B916
:1027D00008E02468206828B1B36829469847002893
:1027E000F7D120682860256070BD00BF4368186875
:1027F00008B102681A60704743681868704700BFE4
:102800004068036873B18B4203D107E0814204D072
:10281000034618680028F9D1704718460B68036012
:10282000012070471846704710B570B101280BD1D0
:102830000D4C2369A0703BB1D3E900230120226134
:1028400098472369002BF7D110BD074CA3680122DC
:102850006270002BF8D0D3E900230020A2609847D3
:10286000A368002BF7D1EFE7CC68002038B50A4CFD
:1028700023786BB909486360A3602361E36000F0CB
:10288000F7F8054600F002F901232370284638BD09
:102890008525284638BD00BFCC68002029280000C7
:1028A00038B5154CA378054673B110B143680120C3
:1028B00098470020FEF73EFFE3680133E360002005
:1028C000BDE83840FEF73EBF03F0FF00FEF732FFE1
:1028D00065B1226942B1954208D0134601E09D429C
:1028E00004D01B68002BFAD12A602561E368002B15
:1028F000E2D100F0DDF8DFE7CC68002038B5084C05
:102900000020FEF717FFE368013BE360E56815B9B7
:1029100000F0E6F8A5700020BDE83840FEF712BFD1
:10292000CC6800204FF08043D3F81804C0F3004077
:10293000704700BF38B5154C6378054673B110B1C8
:102940004368002098470020FEF7F4FE63680133D7
:1029500063600020BDE83840FEF7F4BE03F0FF00DE
:10296000FEF7E8FE65B1A26842B1954208D0134671
:1029700001E09D4204D01B68002BFAD12A60A560BB
:102980006368002BE2D100F0B7F8DFE7CC680020E5
:1029900038B5084C0020FEF7CDFE6368013B63604C
:1029A000656815B900F0BAF865700020BDE83840D8
:1029B000FEF7C8BECC6800204FF08043D3F80C046B
:1029C00000F00110A0F10110B0FA80F0400970474A
:1029D0000A4A0223C2F80435BFF36F8FBFF34F8F4B
:1029E000C2F80805D2F80034002BFBD00023C2F84F
:1029F0000435BFF36F8FBFF34F8F704700E0014086
:102A00009AB32DE9F047194CA0EB01080D468E183A
:102A1000C0004FF0FF0E4FF0010C002708EB05023D
:102A200022F0030200F01809116815F8013BC4F800
:102A300004C50EFA09FA21EA0A01BFF36F8FBFF34A
:102A40004F8F03FA09F30B441360D4F80034002BC2
:102A5000FBD0C4F80475BFF36F8FBFF34F8FAE4246
:102A600000F10800DAD1BDE8F087704700E00140CE
:102A7000054A13792BB90121106053711846117161
:102A800070478520704700BFE0680020074B1A6838
:102A9000D20704D4C021012283F800131A604FF03A
:102AA00080430122C3F81825704700BF00E100E011
:102AB00010B4094B094A0021196083B01B680193C7
:102AC000019C4FF0804102200123C1F804031360F0
:102AD00003B05DF8044B704704010040080000405B
:102AE000044B01221A604FF08042D2F81834DB0305
:102AF000FBD470470C000040074B00221A6082B0E4
:102B00001B68019301994FF080430122C3F804230D
:102B10001A6002B0704700BF00010040074B01225D
:102B20001A604FF08042D2F80C3403F00113B3F175
:102B3000011FF8D0024B00225A7170470400004078
:102B4000E068002010B5154B1A6882B07AB10021F8
:102B5000134A19601B68507900934FF0804101239C
:102B6000009CC1F8083310B91168537188470D4BA8
:102B70001A6882B100221A601B6801934FF08042EC
:102B80000221074B0198C2F808131B68012002B00C
:102B9000BDE81040184702B010BD00BF0001004062
:102BA000E06800200401004030B5204C94F86A50E1
:102BB00083B0002D36D14FF0FF332946062204F1B1
:102BC0006400C4E90033C4E90233C4E90433C4E94E
:102BD0000633C4E90833C4E90A33C4E90C33C4E951
:102BE0000E33C4E91033C4E91233C4E91433C4E921
:102BF000163323664BF011F80D4A0E4B0E491D603B
:102C0000C02082F80603402010601B6801930198E1
:102C10004FF000430122284684F86A20C1F80433AB
:102C200003B030BD082003B030BD00BFE86800200D
:102C300000E100E07C61004000600040034B93F83D
:102C40006A00003018BF0120704700BFE86800200C
:102C5000F0B5744B1C1894F93050002D6ADA8E7858
:102C6000C6F340069646002E5ED11D6A013500F07F
:102C7000C48009240C2553F8247001375DD004F179
:102C8000010C53F82C70013700F0C280A71CAF4232
:102C900048D253F82720013200F0BC8004F1030C25
:102CA000AC453FD253F82C70013700F0B18004F1ED
:102CB000040CAC4536D253F82C70013700F0A880D4
:102CC00004F1050CAC452DD253F82C70013700F0FF
:102CD0009F8004F1060CAC4524D253F82C700137C8
:102CE00000F0968004F1070CAC451BD253F82C7011
:102CF000013700F08D8004F1080CAC4512D253F876
:102D00002C70013700F0848004F1090CAC4509D225
:102D100053F82C7001377BD00A34AC4202D2DC6A03
:102D2000013409D00420F0BD1D68013574D00124A0
:102D30000825A0E70820F0BD0B241F1865B243F852
:102D400024E087F83050002E5ED08A7854071AD4D9
:102D5000D60741D41F284A7887BF334E00F01F049E
:102D600004464FF0A04604F5E074920046F8242093
:102D70002E4EC40800F0070C375D012202FA0CF257
:102D80003A4332558A780C7812F0020209D1083D94
:102D90002B44104693F8602042EA841483F8604084
:102DA000F0BDAB0003F1804303F5C0430202D3F84A
:102DB000101521F44F3121F44071C3F8101524048B
:102DC000D3F8101504F4403402F47C5222430A4331
:102DD000C3F810250020F0BD1F2887BF124A00F05D
:102DE0001F0404464FF0A04202EB8402D2F80047D1
:102DF00024F00204C2F80047BAE7082684F83060DD
:102E0000C3F820E0354634461C4484F858009CE75B
:102E1000644692E73C4690E700251A6084F83050FB
:102E200093E700BFE8680020000300504C690020D1
:102E300070B43A4D2E1883B096F93030072B20DD50
:102E40002B4493F858309B09032B45D0012B14BF1A
:102E50004FF440314FF400311F284DD900F01F00CE
:102E60002F4B03EB8000D0F8002722F44032C0F84B
:102E70000027D0F800370B43C0F8003703B070BC10
:102E80007047DAB2072AF9D8980000F1804000F5BF
:102E9000C04003F14002D0F81045920092B244F0D5
:102EA000010402F18042C0F8104502F5C042002042
:102EB0000190019C10600029E0D096F9302055F86F
:102EC0002220002ADAD00122164902FA03F3C1F8BF
:102ED000043303B070BC70471F2810D9104BD3F8CF
:102EE000103500F01F00C34013F0010F0CBF4FF46A
:102EF00000314FF44031B3E74FF0A043B1E74FF05A
:102F0000A0421346D2F81025C24012F0010F14BFA0
:102F10004FF440314FF40031A3E700BFE8680020D0
:102F200000030050006000401F288ABF054B4FF08F
:102F3000A04300F01F00D3F8103523FA00F000F092
:102F400001007047000300502DE9F047002388B0CE
:102F5000CDE90233CE4A1668012E00F03B821E46B0
:102F6000CC4B1A68012A00F02782CB4B1A68012A41
:102F700000F01482C94B1A68012A00F00182C84B84
:102F80001A68012A00F0EE81C64B1A68012A00F087
:102F9000DB81C54B1A68012A00F0C881C34B1A684F
:102FA000012A00F0B581C24B1A68012A0FD1002214
:102FB0001A601B6801934FF0A042019BD2F81025C4
:102FC000BC4B0292D3F81035039346F0004616F03E
:102FD000FF0F1AD0B84F00240125A30003F180434E
:102FE0002E4203F5C0434FEA45050BD0D3F8100538
:102FF00057F82420D3F81015C0F30520C1F3014180
:1030000002B190470134082CE7D1002E02DB08B052
:10301000BDE8F087A84CA74F4FF0FF33CDE906334A
:1030200094F960300DF1100800225D1CC8F80420EE
:1030300004924FF0010600F0F4805FFA83FC2CF05C
:10304000C00008AB4FEAD00903EB090E0CF00703F0
:103050001EF8082C06FA03F312EA030521D0221801
:103060004FEA9C1192F9302054F82220002A00F0F7
:103070002981032900F028811F2800F2F9800546E4
:103080004FF0A04C0CEB850C1EF8185CDCF800E748
:103090001D40CEF3014E40F0DF80BEF1030F00F083
:1030A000BF8194F96130581C32D0DBB223F0C000EC
:1030B00008AA4FEAD00E02EB0E0C03F007011CF831
:1030C000082C06FA01F912EA090F21D022189909F1
:1030D00092F9302054F82220002A00F0FB800329C6
:1030E00000F0FB801F2800F2E98003464FF0A04E5D
:1030F0000EEB83031CF818ECD3F800C71EEA090F87
:10310000CCF3014C40F0B880BCF1030F00F0AE816D
:1031100094F96230591C30D0DBB223F0C00008AA09
:103120004FEAD00E02EB0E0C03F007011CF8082C3E
:1031300006FA01F912EA090F1FD02218990992F92B
:10314000302054F82220002A00F0D880032900F013
:10315000D8801F287CD803464FF0A04E0EEB830387
:103160001CF818ECD3F800C71EEA090FCCF3014C89
:1031700064D1BCF1030F00F0658194F963305A1CEF
:1031800034D0DBB223F0C00008AA4FEAD00E02EB25
:103190000E0C03F007021CF8081C06FA02F211429A
:1031A00024D004EB0009990999F9309054F829903A
:1031B000B9F1000F00F09880032900F098801F28D3
:1031C0008BBFBE464FF0A04E03F01F0303460EEB2D
:1031D00083031CF818ECD3F800C71EEA020FCCF3E7
:1031E000014C20D1BCF1030F00F00181002D3FF410
:1031F0000EAF4FF0A0430299D3F81035D7F8102541
:10320000994203D1039991423FF401AFDDE90401F2
:10321000CDE9023294F960305D1CCDE906017FF4FE
:103220000CAF00253DE7BCF1020FDFD1032900F010
:103230003481B9F1000F40F0F180D7E7BCF1020F03
:103240009BD1032900F02681002A96D0904794E76D
:1032500003F01F03BE4681E7BEF1020FE1D103294F
:1032600000F021810025002A3FF41BAF904718E7AA
:103270000CF01F05BC4605E7BCF1020F7FF448AF18
:10328000032900F00D81002A3FF442AF90473FE749
:103290000061004004610040086100400C61004092
:1032A0001061004014610040186100401C61004042
:1032B0007C61004000030050E868002003F01F0319
:1032C000BE4615E70329ACD118F809501D4308F88C
:1032D0000950D1E603297FF41BAF18F80EA04AEA83
:1032E000090A08F80EA0FDE603297FF47FAF18F85D
:1032F0000EA04AEA020A08F80EA060E703297FF44C
:103300003CAF18F80EA04AEA090A08F80EA020E718
:10331000664AD2F8042317067FF545AE00221A60EC
:103320001B680093009B46F080063CE65F4AD2F89B
:10333000042352067FF532AE00221A601B68009308
:10334000009B46F0400629E6584AD2F8042391062D
:103350007FF51FAE00221A601B680093009B46F0A9
:10336000200616E6514AD2F80423D0067FF50CAEAB
:1033700000221A601B680093009B46F0100603E6CB
:103380004A4AD2F8042314077FF5F9AD00221A60E7
:103390001B680093009B46F00806F0E5434AD2F80C
:1033A000042355077FF5E6AD00221A601B680093E1
:1033B000009B46F00406DDE53C4AD2F8042397075B
:1033C0007FF5D3AD00221A601B680093009B46F086
:1033D0000206CAE53549D1F8041311F0010104D001
:1033E000136013680093009BBAE50E46B8E5032905
:1033F0007FF41FAF4FF4003CD3F8002722F4403293
:10340000C3F80027D3F80027013542EA0C02EDB2D9
:10341000C3F80027B9F1000F3FF4EBAEC847E5E66B
:1034200003297FF420AF4FF40035DCF8003723F494
:103430004033CCF80037DCF800372B43CCF80037AA
:10344000012510E703297FF4FFAE4FF4003ED3F8C7
:1034500000C72CF4403CC3F800C7D3F800C70135BF
:103460004EEA0C0CEDB2C3F800C7EDE603297FF479
:103470000AAF4FF4003ED3F800C72CF4403CC3F829
:1034800000C7D3F800C701354EEA0C0CEDB2C3F803
:1034900000C7F8E64FF4403ED9E74FF4403CABE7B5
:1034A0004FF4403EE7E74FF44035BEE70060004090
:1034B0000220FCF785BF00BF2DE9F0470D46064608
:1034C000FCF798FF03281ED8012D04461DD00ED30B
:1034D000022D18D11B4B00EB40041C44657895B1BC
:1034E000194B1B687BB12846BDE8F04718471748C1
:1034F000FEF7FEF8134B164A04EB44010B44125D31
:103500009D78AA42EBD0BDE8F0870E4F4FEA400805
:1035100008EB0003FA18FD5C53782BB9A04447442C
:103520000B4BBA781A55DAE7DFF8289007484A4675
:103530004FF48041FEF78CF80028EFD189F8006045
:10354000ECE700BFB8690020CC6900207869002052
:10355000D46900205469002010B50078FCF74AFFB8
:1035600003280BD8064B00EB40001844407828B1E4
:10357000044B1B6813B1BDE81040184710BD00BFD5
:10358000B8690020CC690020B44B1B68DB0700D46D
:10359000704770B5B24DB34E2B7834786BB1B24BE7
:1035A0001B7800202870002B4BD0FCF7C9FE0120AF
:1035B000FCF7C6FE0320FCF7C3FE172C40D8DFE85B
:1035C00014F0B600F400F400DC000801CA00130196
:1035D000EE00500043005000430061001800180046
:1035E000180018001800660077008B009F005D002F
:1035F0005D009E48FEF77CF8D4F11104054600F00A
:103600000081002840F0FD80012C13D0C82303FB6B
:1036100004F44FF47A704FF400430021C3FB04011B
:103620004FF4FA6200234BF035FE2A4601468F48DC
:10363000FEF70EF80220FCF76FFE8B4B01221A708A
:1036400070BDFCF791FEB8E7012318462B70FCF71C
:10365000B7FE00224FF400518548BDE87040FDF7E9
:10366000F7BF012318462B70FCF7AAFE002240F298
:1036700066617F48BDE87040FDF7EABFFCF78AFE4F
:10368000347070BDFCF786FE0C23337070BD764B32
:103690001B78002B00F0BF800020FCF751FE0120BA
:1036A000FCF74EFE0320FCF74BFE1223337070BD77
:1036B0006D4B1B78002B00F0B1800020FCF740FE22
:1036C0000120FCF73DFE0320FCF73AFE0020FCF74A
:1036D00023FE1323337070BD634B1B78002B00F067
:1036E000AD800020FCF72CFE0120FCF729FE032012
:1036F000FCF726FE0120FCF70FFE1423337070BD8B
:10370000594B1B78002B00F083800020FCF718FE3B
:103710000120FCF715FE0320FCF712FE0020FCF749
:10372000FBFD0120FCF7F8FD1523337070BD4E4BF7
:103730001B78002B00F08A800020FCF701FE01209E
:10374000FCF7FEFD0320FCF7FBFD4948FDF7D0FF29
:103750000023337070BD0020FCF7CAFD002860D044
:103760000020FCF7EDFD05233370002240F6CD412B
:103770003F48BDE87040FDF76BBF0020FCF7B8FD87
:1037800000285ED00020FCF7DBFD43F23331032339
:10379000337000223648BDE87040FDF759BF002065
:1037A000FCF7BAFD0723337070BD0020FCF7A0FDC5
:1037B000D0B30020FCF7C4FD022C47F2333118BF10
:1037C0004FF48031347000222948BDE87040FDF785
:1037D0003FBF0020FCF78CFDD8B30020FCF7B0FD04
:1037E0004FF480310423D3E70020FCF7E9FD0623E2
:1037F0003370002240F266611D48BDE87040FDF75D
:1038000027BF0220FCF79CFD174B00221A7070BDE9
:10381000FCF7AAFD82E7FCF7A7FD46E7FCF7A4FD4D
:1038200054E7FCF779FD9EE7FCF776FD41F69A1127
:1038300040F6CD43022C08BF1946C3E7FCF794FDC0
:1038400058E7FCF769FD40F6CD41A0E7FCF78CFD99
:103850007BE7FCF761FD41F69A11C3E7C4690020DC
:10386000C8690020D06900205569002058690020EF
:103870009869002038B5C54B1C6814F0010401D1CB
:10388000204638BDC24C2378054663B1C14B1B7836
:103890000020207023B3FCF753FD0120FCF750FDFE
:1038A0000320FCF74DFD172D00F26D81DFE815F0C8
:1038B000C300EC00EC001001D90023010201360125
:1038C00028001B0028001B006A00710071007100B5
:1038D000710071009A00AD0035004B006400640077
:1038E000FCF742FDDFE7012318462370FCF768FD73
:1038F00000224FF40051A848BDE83840FDF7A8BEAB
:10390000012318462370FCF75BFD002240F266613C
:10391000A148BDE83840FDF79BBE9E4B1B78002BAD
:1039200000F016810020FCF70BFD0120FCF708FDDC
:103930000320FCF705FD0120FCF7EEFC974B142259
:103940001A7000249CE7934B1B78002B00F0038136
:103950000020FCF7F5FC0120FCF7F2FC0320FCF74B
:10396000EFFC0020FCF7D8FC0120FCF7D5FC8B4BCA
:1039700015221A70002483E7FCF70CFD874B002406
:103980001D707DE7FCF706FD844B0C221A700024A5
:1039900076E78348FDF7ACFE0446D5F1110000F050
:1039A000C580002C40F0C280012814D0C82505FB3A
:1039B00000F54FF400434FF47A700021C3FB05017A
:1039C0004FF4FA6200234BF065FC2246014674482E
:1039D000FDF73EFE04460220FCF79EFC6D4B0122E3
:1039E0001A704DE76B4B1B78002B00F0AE80002067
:1039F000FCF7A6FC0120FCF7A3FC0320FCF7A0FCCD
:103A0000664B12221A7000243AE7624B1B78002B97
:103A100000F093800020FCF793FC0120FCF790FC61
:103A20000320FCF78DFC0020FCF776FC5B4B132297
:103A30001A70002424E7574B1B78002B00F08E806F
:103A40000020FCF77DFC0120FCF77AFC0320FCF74A
:103A500077FC5148FDF74CFE504B002204461A708B
:103A60000EE70020FCF744FC002869D00020FCF79A
:103A700067FC4FF48031494B474804241C700022F6
:103A8000BDE83840FDF7E4BD0020FCF731FC00281C
:103A90006CD00020FCF754FC022D47F2333118BFE4
:103AA0004FF480313D4B3C481D700022BDE838404A
:103AB000FDF7CEBD0020FCF783FC384B36480624CA
:103AC0001C70002240F26661BDE83840FDF7C0BDC1
:103AD0000020FCF70DFC002843D00020FCF730FC50
:103AE00043F233312D4B2C4803241C700022BDE8D7
:103AF0003840FDF7ADBD0020FCF7FAFB00283FD0B1
:103B00000020FCF71DFC254B234805241C700022D7
:103B100040F6CD41BDE83840FDF79ABD0020FCF7E6
:103B2000FBFB1E4B07221A700024A9E60220FCF7BB
:103B300007FC184B00221A70A2E6FCF715FC72E78E
:103B4000FCF7EAFB41F69A1195E7FCF70DFC57E705
:103B5000FCF70AFCEFE6FCF707FC02E7FCF704FCC5
:103B600077E7FCF7D9FB40F6CD41BBE7FCF7D4FB88
:103B700041F69A1140F6CD43022D08BF194691E750
:103B8000FCF7CAFBBFE700247AE600BFC469002047
:103B9000C86900205569002098690020D06900207C
:103BA0005869002038B5244B244A196083071060F7
:103BB00000F0010503D4CDB92C46204638BD204B7A
:103BC00020480E240F2210211C701124DA709971E4
:103BD0005C7240F233320421FDF79EFA0446B8B11C
:103BE00015B10120FCF718FC204638BD0120FCF778
:103BF00013FC154A15480021FDF71CFD044600285A
:103C0000F2D1134A13480121BDE83840FDF712BD37
:103C1000FDF7DEFA04460028E2D101460E4A0F48BD
:103C2000FDF708FD0446002DDED00120FCF7F4FB73
:103C3000002CD9D1DDE700BFCC690020C469002089
:103C4000B8690020A0F7040089350000C8F7040017
:103C5000B1340000C0F7040059350000C4F7040077
:103C600008B51B78802B00D008BD0D4B0722012022
:103C70001A70FCF73DFB60B9FCF74EFB0120FCF726
:103C80004BFB002240F6CD410648BDE80840FDF759
:103C9000DFBC0020FCF754FB0120FCF751FBF0E7F0
:103CA000086A0020106A0020420700D4704708B557
:103CB00008461EF065FB88B1831E022B0A4A06D90E
:103CC000062313701846BDE80840FFF7D3BD07234D
:103CD00013701846BDE80840FFF7CCBD024A1070CB
:103CE000BDE80840FFF7C6BDF969002008B51C4BC8
:103CF0001B78032B27D8DFE803F0211207020120ED
:103D0000BDE80840FCF708BB0120FCF759FB002286
:103D100040F266611348BDE80840FDF799BC0120F8
:103D2000FCF7E6FA80B90120FCF7F6FA40F6CD413F
:103D300000220C48BDE80840FDF78ABC0120BDE820
:103D40000840FCF7FDBA08BD0120FCF7F9FA43F280
:103D5000333100220348BDE80840FDF779BC00BFBD
:103D6000F8690020D869002008B52C4A1378013B77
:103D7000DBB2137083B10120FCF7BAFAA0B9FCF7EB
:103D8000CBFA0120FCF7C8FA002240F6CD412448C6
:103D9000BDE80840FDF75CBC224B1B78032B0DD817
:103DA000DFE803F0121B2B090020FCF7C9FA012001
:103DB000FCF7C6FAE8E70120FCF7AEFA1A4B1878D0
:103DC000BDE80840FFF756BD0120FCF7B9FA164BD5
:103DD0001878BDE80840FFF74DBD0120FCF788FAD0
:103DE000A8B10120FCF7ACFA43F2333100220F48AE
:103DF000FDF72EFC0028E1D008BD0120FCF7E0FA19
:103E0000002240F266610948FDF722FCF2E701203A
:103E1000FCF782FA40F6CD41E8E700BF086A0020CF
:103E2000106A0020F8690020F9690020D869002094
:103E300070B5134A134E144B0024214614700546E6
:103E40000C2230461C7049F0E8FE21460F4B104A08
:103E500010483360FDF7EEFB044628B901460E4AD0
:103E60000E48FDF7E7FB04462A460D4928460AF0AE
:103E70008BF9284603490AF0B5F8204670BD00BF0B
:103E8000F9690020FC690020F8690020613C00000D
:103E9000ED3C0000CCF70400693D0000D0F70400C1
:103EA000A93C000010B504460C48FDF721FC0C4865
:103EB000FDF71EFC0020FCF743FA0120FCF740FA56
:103EC0002246204607490AF062F9074A0023137088
:103ED0001846BDE81040FFF7CDBC00BFD8690020F0
:103EE000106A0020A93C0000F9690020FDF702BE1D
:103EF000FDF7A4BD38B54FF480410020FCF7DEFB90
:103F000008B1FDF77BF9FCF75FFBFDF75DFB08B13E
:103F1000FDF774F9002301204FF0A041032204E0D3
:103F200015F4F03F18BF41F824200133202B00FA8C
:103F300003F503F5E074F3D14FF0A0434FF4F031F3
:103F40000022C3F80815C3F80C25FDF75DFD08B184
:103F5000FDF754F91F4920482EF01AFE002037F0D3
:103F60003DFC1C491C480AF02BF800210120FFF7FA
:103F700019FE08B1FDF742F9184C0025002108464A
:103F800039F07EFD0AF0F6F8206000F095FA20681E
:103F900005211EF02FFB2068FFF74AFF60B1FDF7F7
:103FA0002DF909E020681EF0ECF8206839F096FD44
:103FB00020681EF0F1F858B139F08AFD0028F1D0E0
:103FC0002068FFF76FFF20680AF0DAF82560D5E770
:103FD00020BFF1E7ED3E0000F13E0000306A002016
:103FE0002DE9F84F4400DFF85CB126180BEBC6064C
:103FF0008146F76A012F8A46904667D03DD3022F4B
:1040000030D100F1010909EB4909756A4FEAC90984
:104010000027B36A346AAB4203F1FF329CBF1B191D
:1040200003F1FF33A4EB05048CBF531B5B1B0BEBAD
:104030000902444528BF44469C42506828BF1C469C
:1040400028445146224649F0C4FD336A25449D4226
:104050002744A8EB0408A24408D07562B8F1000F09
:10406000D7D100E000273846BDE8F88F00231D4671
:104070007362B8F1000FCCD1F5E7B36A756AAB4251
:104080009CBF326A9B18013B5B1B9845EBD80444EC
:1040900000F101090BEBC40409EB49090BEBC90B57
:1040A000266ADBF80400761BB045284443D3324629
:1040B000A8EB060549F08DFD0AEB0601DBF80400CC
:1040C0002A4649F086FD47466562CCE7D6E90825D1
:1040D000B76AAF4298BFBF18461C013F06EB4606C1
:1040E0007F1B0BEBC606474528BF47467068A2EB0F
:1040F00005084745284412D3A1444246A7EB0805CA
:104100000BEBC90B49F065FD0AEB080170682A4604
:1041100049F05FFDCBF824503846BDE8F88FA14444
:104120000BEBC90B3A463D4449F053FDCBF8245004
:104130003846BDE8F88F4246454449F04AFD4746B7
:10414000656290E7C43401202DE9F0412B4C94F8CE
:1041500000C00546884616461F46BCF1000F23D016
:104160002369AB4246D90020FDF7E4FA5DB92A463F
:10417000154404EBC504069BE3620020FDF7E2FA58
:104180000020BDE8F0816B1C03EB4303DB006A00F9
:10419000511904EBC10144F80380234400200F624D
:1041A0005E6088624862E3E7154B1648A36102220D
:1041B000C4E904224FF40071134AA3641023C4F825
:1041C00028C02365C4F824C0C4F82CC0C4F858C063
:1041D000C4F854C0C4F85CC0E0612162E2640B49D9
:1041E000E01D4AF012F90A4920464AF00EF9202350
:1041F000A371B5E74FF0FF30C3E700BFC43401201F
:10420000D4F70400446A0020346A0020E0F7040078
:10421000E4F7040038B5114C114B1248E361102546
:104220004FF40073104A11492362E06400232565AE
:10423000E01D0225A3626362E362A3656365E36533
:10424000A261A264C4E904554AF0DFF82046084997
:104250004AF0DBF82023A37138BD00BFC43401202D
:10426000446A0020346A0020D4F70400E0F7040018
:10427000E4F7040010B44FF080414FF0805200206A
:10428000C1F80C015E4BC1F81001C1F83805D2F835
:104290000414C3F82015D2F80814C3F82415D2F872
:1042A0000C14C3F82815D2F81014C3F82C15D2F842
:1042B0001414C3F83015D2F81814C3F83415D2F812
:1042C0001C14C3F84015D2F82014C3F84415D2F8D2
:1042D0002414C3F84815D2F82814C3F84C15D2F8A2
:1042E0002C14C3F85015D2F83014C3F85415D2F872
:1042F0003414C3F86015D2F83814C3F86415D2F832
:104300003C04C3F86805D2F840043E49C3F86C0584
:104310000968D2F84424C3F87025082924D04FF046
:104320008043D3F80024D20744BF6FF00102C3F8E2
:104330000024354AD2F8883043F47003C2F888303C
:10434000BFF34F8FBFF36F8F4FF01023D3F80022CE
:10435000002A23DBD3F80432002B1FDB2B4B2C4A23
:104360001A605DF8044B70472A4B1B68002BD6D1AE
:1043700029482A4A2A4C04602A492B4BFB20C2F8C0
:1043800018050A681B68294822F00F0203F00F0382
:1043900013434FF400720B600260C0E7244B01220C
:1043A000C3F80425D3F80024002AFBD04FF01023D3
:1043B00012221F49C3F80022D1F80034002BFBD091
:1043C0004FF0102212211A4BC2F80412D3F8002425
:1043D000002AFBD000221649C3F80425D1F8003486
:1043E000002BFBD0BFF34F8F0749124BCA6802F472
:1043F000E0621343CB60BFF34F8F00BFFDE700BF08
:1044000000C000403001001000ED00E0100000206E
:104410000090D003340100108C56004000F00040A2
:1044200048810300E40E004058020010409602400C
:1044300000E001400400FA0538B504460D4600F0DE
:1044400055FA04F5647104F55D7000F04AF92346ED
:1044500004F21C41154A04F55F7000F09CF904F267
:104460009633C4F8903304F222428023A4F89433A4
:10447000C4F81C24002340F2145284F8183484F841
:104480001934A4F8202484F8383929462346084AE8
:1044900004F63C101DF03EFE22460649201D06F0A3
:1044A0000DFD39F093FB204638BD00BFC546000026
:1044B000BB450000EB44000010B5054C014620460A
:1044C000FFF7BAFF00F0E6FA844200D0FEE710BD25
:1044D000486C0020D0F8902300F296339A4203D122
:1044E00000F63C101DF02EBE7047FFF7F3BF2DE91C
:1044F000F8430446051D00F55D764FF002080127DC
:10450000284606F0FBFD94F8183490B1022B18D120
:10451000012B21D3022BF3D1304600F01DF980B9D5
:1045200094F8383984F81804002BE9D084F8380955
:10453000E5E7012BEDD194F81914304600F0DEF8D0
:10454000F8B1D4F8901304F29630091A89B291B3F5
:1045500039F0D0FB78B3FEE7204600F0B7FA08B197
:1045600038F0B2FE204600F0BBFA0028E9D1304610
:1045700000F0BBF80028E4D1284606F055FE84F888
:104580001874284606F067FE28B9284606F06CFE27
:1045900084F81904CFE794F8C090284606F072FF1B
:1045A000B9F1000F04D094F8C0300BB984F8387911
:1045B00084F81884B0E7BDE8F88308B500F06AFA1B
:1045C000BDE80840FFF793BF00F29633C0F8903380
:1045D0008023A0F8943300F63C101DF0B3BD08B55D
:1045E00000F058FA18B1BDE80840FFF7EDBF08BD6C
:1045F00038B504460D4600F04DFA38B12A4621463A
:1046000000F55F70BDE8384000F0CEB838BD00005E
:10461000F0B50C46A1B016461F4600F06BFA2346D3
:10462000194A1A4D8021684649F0A4FE684649F0AF
:1046300009FF69460246002001F012FA0024BC423C
:10464000A0B20ED0292C0BD0A4EB840104EB4400C3
:10465000335D2A468031684449F08CFE0134EEE730
:10466000204600EB4000C0F18001094A684449F04F
:1046700081FE684649F0E6FE0DF10101421E002070
:1046800001F0EEF921B0F0BDEBF70400FFF70400F4
:1046900005F8040038B5D0F81C3400F222455B1B45
:1046A00004469BB251B91A46294601F0D5F840F2AA
:1046B0001453C4F81C54A4F8203438BD2A46FFF71C
:1046C000A7FFF4E7FFF7E6BF838843B103685A1CEE
:1046D000026019708388013B8380002070470320AB
:1046E0007047002201608280704708B54FF6FF7363
:1046F00083807E210068FFF7E7FF08BD38B57E297B
:1047000005460C4600680AD87D2903D2112901D03C
:10471000132906D18388012B08D8032005E0F82946
:10472000F7E72146FFF7D0FF40B138BD7D21FFF705
:10473000CBFF84F020012868FFF7C6FFAA88054B4D
:104740005440E4B2002033F8143083EA1223AB80E3
:10475000EBE700BF08F804002DE9F0418688036804
:10476000F543ADB2E9B204461F68B3F80480FFF721
:10477000C5FF48B9290A2046FFF7C0FF20B97E21AE
:104780002068FFF7A1FF20B123681F60A3F8048011
:10479000A680BDE8F08130B500250570C0E90112A2
:1047A000C0E9033530BD00002DE9F843374E04461B
:1047B0000D468F184FF00208AF4265D0237815F8E8
:1047C000011B012B24D01BD3022BF5D16068B0F85C
:1047D0000490B9F1000F50D0B4F810C081F020015E
:1047E00081EA0C02D2B236F8123083EA1C2323820B
:1047F000FFF76AFF638A0133638201232370DBE7DB
:104800007E29D9D1012323704FF6FF732361D3E7AB
:104810007D2917D07E2918D06068B0F80490B9F1CE
:10482000000F2AD0B4F810C081EA0C02D2B236F8D8
:10483000123083EA1C232382FFF746FF638A013389
:104840006382B9E784F80080B6E7638A002BDBD087
:10485000012B10D9228A4FF2B8039A420BD1636818
:104860001A68023A1A609A8802329A800021D4E9C2
:1048700002309847C8E70621F9E7A368E0680321FA
:10488000984784F8009097E7BDE8F88308F804009B
:10489000182826D8DFE800F0280D0F11251315176A
:1048A00025252525191B1D1F2525252525252523DE
:1048B0002100012070470E2070470B2070470C200C
:1048C000704709207047032070470220704704207A
:1048D0007047112070471220704713207047142032
:1048E000704700F580407047002070472DE9F8437D
:1048F0000646044646F8041B4FF40072894600F150
:10490000F901304606F0BFFA0025A66704F17C03E2
:1049100004F19C02C3E9005508339A42FAD1A4F885
:104920009C50C4E9285504F1A80006F012FE4F4B34
:10493000C4F8C8304FF6FF78C82304F1D407A4F8B0
:10494000CC304B4A84F8C0502346C4F8C45084F895
:10495000CE5084F8CF50A4F8D080494638461DF098
:10496000D9FB00230022C4E93823C4E93A230423F5
:1049700084F8F0303F4BC4F8DC501B68C4F8F430C6
:1049800084F8F85084F8F95284F8FA5284F8FB520B
:1049900084F8385384F8395384F83A5384F83B53F5
:1049A00084F83C5384F83D5384F83E5384F83F53D5
:1049B00084F8405384F8418384F84253C4F8485340
:1049C000C4F84C53C4F85053C4F85453C4F8585363
:1049D000C4F85C53C4F86053C4F86453C4F8685313
:1049E000C4F86C5384F87053236803B9FEE7224B74
:1049F00022491C602246304606F063FA3C22002120
:104A000004F53F7049F009F904F5517010F012FEF9
:104A100022461B49206809F0B7FB22462068194945
:104A20000AF0A0FB206801210AF0A5FB22462068BD
:104A300015491EF0A1FD25462068002109F0CEFA97
:104A4000206812491DF023FE55F8E00B104922465C
:104A50001DF061FD77220021284607F049F838460D
:104A60001DF070FB2046BDE8F88300BF00F8FF078B
:104A7000514E0000FCFA040090750020BF4E00006B
:104A80001DA8000009A600002BA700000971000066
:104A900059700000014B1868704700BF90750020E6
:104AA0000023C0F86033C0F86433C0F86833C0F83E
:104AB0006C33C0F84833C0F84C33C0F85033C0F8FA
:104AC0005433C0F85833C0F85C33704790F8F03076
:104AD000042B1ABF90F8C00080F00100002070473E
:104AE00090F8F030012B06BF90F8C00080F0010074
:104AF00000207047D0F860330133C0F8603370474E
:104B00002DE9F843994690F83C3304469046002935
:104B100014BF0F46702713B10D20BDE8F88300F1D4
:104B2000E0053946284607F079F80028F4D194F8D2
:104B3000FA2294F8FB329A420AD00B22002128462E
:104B400006F0D6FF04F1D4001DF0FCFA0320E4E7E0
:104B500004F178063B4606228021304606F095FF98
:104B600048B91FFA89F24146A06F06F061FC10B9FE
:104B7000304606F06DFF0328CFD1DEE70138042868
:104B80009ABF024B185C0020704700BF11FA040066
:104B9000F8B511F00F0508D1022A04D11A462946AA
:104BA000E03006F0A5FF28460CE090F8FB6290F894
:104BB000FA72F41B0E2C06DDE0300E22002106F006
:104BC00097FF0320F8BD90F8F942AC4217D0BE42DF
:104BD00015D93C460E2C02D90F3CE4B2FAE7BE349C
:104BE00000EB840494F804C01CF0100F0DD00CF0FE
:104BF0000F0EAE4509D16FF3041C84F804C034468F
:104C00000E2C05D90F3CE4B2FAE70137FFB2DEE71C
:104C1000BE3400EB84040136257961F30305E9B263
:104C200041F0100162F346112171626863F3DE12F4
:104C3000626080F8FB620020C4E713460222FFF79F
:104C4000A7BF38B511F0300F00F1780408BFC0F8E5
:104C5000C420154600230622204606F016FF48B958
:104C60002946204606F059FE20B92046BDE83840C6
:104C700006F0EEBE38BD2DE9F74304460E46014668
:104C800068469146984600F0FDFEDDE900570DB9F3
:104C9000F90717D504F178084B46062231464046FD
:104CA00006F0F3FED8B97B10FA0704EB030044BF0B
:104CB000E3585D59A84790B9404603B0BDE8F043BA
:104CC00006F0C6BEB8F1000F07D00D2231462046CF
:104CD00003B0BDE8F043FFF7B4BF4246F6E703B0C8
:104CE000BDE8F08370B50446002694F8FA5294F8B3
:104CF000FB32AB4237D0BE3504EB85021379D906BF
:104D000016D404EB85052B796FF304132B7194F8FB
:104D1000FA320133DBB20F2B84F8FA32E5D194F882
:104D2000FB3284F8FA620E2B1AD90F3BDBB2FAE79A
:104D3000C3F30301526803F06003402B41F080018C
:104D4000C2F3D71205D12046FFF77BFF0028D8D049
:104D500070BDB3FA83F35B092046FFF78CFFF5E7DC
:104D600084F8FB32C1E70020F2E700002DE9F04FA4
:104D7000044685B005F05CFDD4E93823134352D0D6
:104D800004F1E00006F0B1FE2F4F01900025019ADA
:104D9000EBB2934247D2D4E93803C5F1200103FABC
:104DA00001F1A5F1200220FA05FA23FA02F24AEAFB
:104DB000010A4AEA020A00230AF001021343A5F19C
:104DC0002003C5F12006029301D10135DFE70C2352
:104DD0006B43D919DA5962BB4A68772A09D120682E
:104DE000039238F057FA082898BF184B039A98BFD7
:104DF0001A5C80212046FFF724FFA0B9029A012304
:104E000003FA02F923FA06F603FA05F8D4E938237F
:104E100049EA060922EA080023EA090150EA0103E7
:104E2000C4E93801D1D1012384F8703305B0BDE85D
:104E3000F08F94F87033002BE0D0012380212046BE
:104E4000FFF719FFD9E700BF00FB040008FA0400D0
:104E5000014B1868FFF78ABF9075002010B590F8D5
:104E6000C030044633B1D0F8F4308B4204BF002385
:104E700080F8C0302046FFF735FFF8B994F8F810F5
:104E800099B101230C222046FFF7F5FEB0B994F842
:104E9000F03084F8F800042B07D0201D06F02CF920
:104EA0000123C4F8F40084F8C030204605F07CFBF0
:104EB00020B92046BDE81040FFF758BF10BDFFF7EE
:104EC000CDBFF8B500F1780405462046069EBDF832
:104ED0001C7006F0DAFD50B93A463146A86F06F06C
:104EE000A7FA20B92046BDE8F84006F0B1BDF8BDEC
:104EF0002DE9F04F042B87B004460F46924602D0AE
:104F0000052B16D0FEE7014604A801F04BFFDDE9B2
:104F100004654FF0070905F0010B9EB9BBF1000FC6
:104F200010D10D2239462046FFF787FE07B0BDE8B5
:104F3000F08F014604A801F09FFF4FF00809DDE95A
:104F40000465E8E704F1A808404606F076FC0DF198
:104F50000A0203A9404606F019FC404606F074FC1C
:104F60006D10002384F83C336019BBF1000F01D0B1
:104F700063599E59B047012384F83C33054618B164
:104F8000FFF786FC0246CDE7BDF80A300193039B8C
:104F900000934A46534639462046FFF792FF0028C1
:104FA000C4D02A46BEE708B50022FFF746FE08BD7A
:104FB00038B50446006809F0E5F8002120681DF0C6
:104FC00067FA002120680AF099F8722280212046B1
:104FD000FFF737FE054648B104F1E00077220021D3
:104FE00006F086FD04F1D4001DF0ACF8024B00225F
:104FF0001A60284638BD00BF9075002030B5C3B098
:1050000004460D46002301A9A830019306F0A0FB39
:1050100040B1FFF73DFC294602462046FFF711FE4E
:1050200043B030BD8DF8070104221149019848F0C2
:10503000C1FD10B9019B0433019354F8780B019919
:10504000FF2302AA08F058FB4FF46F5306222946AB
:10505000204606F01AFD0028E2D102A9204606F0FB
:1050600097FC0028DCD1204606F0F2FCD8E700BF10
:1050700016FA040010B5044600680BF0D4FD014692
:10508000A06FBDE8104006F0C2B910B50446006834
:105090000BF04FFB0146A06FBDE8104006F0B7B91A
:1050A00037B502A90023054641F8043DA83006F0B3
:1050B00015FB044690B99DF8041028680BF044FBDA
:1050C000044658B928680BF0AEFD38B195F83A336C
:1050D00023B1044928680BF0BBFD0446204603B009
:1050E00030BD00BFCDA9000010B50446006838F0FF
:1050F00047FA002818BF0221A06F08BF0021BDE8B1
:10510000104006F084B937B502A90023054601F81E
:10511000013DA83006F035FA044650B99DF8073035
:105120001BB1022B08D8012100E00146286838F0A5
:1051300029FA204603B030BD0724FAE710B504462B
:1051400054F8780B0BF05CFB01462046BDE810409C
:1051500006F087BB13B504460DF10601A83006F032
:105160003EFA20B9BDF8061020680BF04DFB02B0E6
:1051700010BD10B5044600680BF021FB0822014663
:10518000A06FBDE8104006F053B913B508220446DD
:1051900001A9A83006F0B9FA18B9019920680BF0F6
:1051A00012FB02B010BD10B5044654F8780B0BF09A
:1051B0004EFB01462046BDE8104006F052BB90F879
:1051C0003A13806F06F023B937B502A900230546CC
:1051D00001F8013DA83006F0E4F9044678B92868E2
:1051E0000BF021FD38B19DF80730286853B107490D
:1051F0000BF02EFD04469DF8073085F83A33204623
:1052000003B030BD0BF018FDF4E700BFCDA90000DE
:10521000F8B505460E460024012707FA04F3334289
:10522000E1B204D10134202CF7D1002004E0A86FB2
:1052300006F0EDF80028F5D0F8BD0023F7B50546D7
:105240000C460B6000F1A8070126B5F8AE20B5F8B2
:10525000B0309A420FD00DF10701384606F091F9AF
:1052600050B99DF807301F2B08D8226806FA03F3BF
:1052700013432360E9E7002003B0F0BD0720FBE7FC
:10528000D0F8C810FFF7C4BF13B502A9002341F836
:10529000043D0446FFF7D1FF10B9019BC4F8C830A4
:1052A00002B010BDB0F8CC10783006F0DABA00F1D8
:1052B000CC01A83006F093B910B5044600680BF095
:1052C000B2FC48B194F94133013312D00221A06FEE
:1052D000BDE8104006F09BB820680BF03BFB50B9CE
:1052E00020680BF057FB0028F0D120681DF0F9F87A
:1052F00018B90021EBE70121E9E70321E7E7000006
:1053000010B586B006A90023044601F8013DA83077
:1053100006F037F940B99DF81730032B03D8DFE8C2
:1053200003F047050F370C2006B010BDB4F8CC20B1
:105330000094224BD4F8C81020680BF0F7FAF3E77A
:1053400020680BF070FCC8B194F94133013331D1BE
:10535000D4F8C82082B3531E13402DD15208D9B2BD
:1053600003F1010008D184F84133B4F8CC20144B88
:1053700020680BF081FCD7E70346EFE7B4F8CC20B8
:105380000094104BD4F8C81020680BF0EFFACBE76C
:105390000A49019194F8CF10009194F8CE30B4F8F6
:1053A000D0200294D4F8C81020681DF086F8BBE71E
:1053B0000020B9E70D20B7E70720B5E795A4000066
:1053C00045AB0000F9A400002DE9F84F0546E03098
:1053D00006F08BFBDFF85890834600244FF00C0A50
:1053E00005F17808E3B29B451FD9D5E93A23C4F10A
:1053F000200022FA04F603FA00F0A4F1200123FAB7
:1054000001F106430E4306F001020023134301D1CC
:105410000134E7E70AFB04F3404653F8091006F0AD
:105420007CFA0028F4D0BDE8F88F0020FBE700BF2D
:1054300000FB0400F7B500230022C0E93A2304462C
:1054400000F1A80700F1E006B4F8AE20B4F8B030DF
:105450009A420BD001A9384606F040F9054648B9F2
:1054600001220199304606F085FBEDE7002528462C
:1054700003B0F0BD012341F2080280212046FFF76E
:10548000FAFBF4E713B5044601A9A83006F026F9A3
:1054900028B90122019904F1E00006F06BFB02B08B
:1054A00010BD13B5044601A9A83006F017F928B9B4
:1054B0000246019904F1E00006F05CFB02B010BD69
:1054C000D0F8C410783006F028BA10B500F178048E
:1054D0000421204606F021FA28B920460321BDE820
:1054E000104006F01ABA10BD0321783006F015BA44
:1054F0000021783006F011BA10B500F178040521CA
:10550000204606F00AFA00285DD10C21204606F05C
:1055100004FA002857D11821204606F0FEF9002889
:1055200051D12021204606F0F8F900284BD140F255
:105530000121204606F0F1F9002844D1352120460A
:1055400006F0EBF9F8BB0E21204606F0E6F9D0BBD9
:105550004FF40071204606F0E0F9A0BB4FF4017152
:10556000204606F0DAF970BB40F20A21204606F028
:10557000D4F940BB3021204606F0CFF918BB3121C9
:10558000204606F0CAF9F0B94FF48061204606F0D3
:10559000C4F9C0B940F20341204606F0BEF990B903
:1055A00040F20441204606F0B8F960B940F20241E9
:1055B000204606F0B2F930B9204640F20541BDE878
:1055C000104006F0AAB910BD10B5044608F0E4FD7D
:1055D000014604F17800BDE8104006F0D9B9012178
:1055E000806F05F014BF0021806F05F010BF04210B
:1055F000806F05F00CBF0C20704713B50446694658
:1056000000680BF0F7F808226946A06F05F010FF5C
:1056100002B010BD0221783006F055BA90F8F010B3
:10562000806F05F0F4BE000073B504460E46A83046
:105630000DF1070105F0A5FFA0BB9DF80730042B75
:1056400007D8012202FA03F111F01B0F02D14B0718
:1056500003D4032384F8F03001E084F8F020002321
:1056600084F8F8300C22012331462046FFF703FB73
:1056700094F8F030042B054608D070B9201D05F0D1
:105680003BFDC4F8F400012384F8C03015B184F860
:10569000F8600025284602B070BD074B1B68C4F8AF
:1056A000F430F0E7FFF7F4F8314602462046FFF702
:1056B000C8FA0546EEE700BFFCFA040010B51C4628
:1056C00041F210539A4218D005D80C2A0DD0712AF5
:1056D00016D000200DE041F607039A420AD0B2F539
:1056E0006F5FF6D1FFF78AFC01E0FFF79DFF2070A6
:1056F000012010BD02F0F0F8F9E702F034F9F6E706
:1057000005F042FBF3E7F0B585B004460D460026F0
:10571000014602A817468DF8076001F0A9F8DDE9F7
:10572000022303F0010102B9C1B15B1084F83C63AC
:10573000E01809B1E3589A58904701228DF8070004
:1057400084F83C23C8B93B4629462046FFF720FA97
:105750008DF807009DF8070005B0F0BD0DF10703B7
:105760003A4629462046FFF7A9FF0028F2D10D222C
:1057700029462046FFF761FAEAE7FFF789F8024673
:10578000F6E773B50D4602A9002341F8043D04462F
:10579000A830164605F0A2FF014650B1FFF778F891
:1057A000294602462046FFF748FA0146084602B05D
:1057B00070BDB31E032BF9D8DFE803F002090F0F09
:1057C000019B002229462046FFF7E2F9EDE7019A06
:1057D00029462046FFF797FFE7E73346019A294617
:1057E0002046FFF785FBE0E737B504460D46A830B5
:1057F00001A905F073FF70B9019A0B2A26D8DFE8DA
:1058000002F0060C11111111252525161B20294621
:105810002046FFF7C8FB03B030BD29462046FFF7FE
:10582000C7FBF8E729462046FFF7ABFFF3E7294619
:10583000204602F056FAEEE72946204602F055FAD5
:10584000E9E72946204602F060FAE4E70522294606
:105850002046FFF7F2F9DEE7F7B502AD0123002796
:1058600000F1A806044680F83C3305F8017D304677
:1058700005F07CFE042384F8F03084F8C0702946DB
:10588000304605F07EFE80B99DF807100B060CD55A
:10589000D4F8643311F0300F03F10103C4F864331A
:1058A00008D006222046FFF7CCF9002384F83C33C9
:1058B00003B0F0BD2046FFF797FF38B19DF8071001
:1058C000FEF7E6FF02462046FFF7B7F994F8FA2202
:1058D00094F8FB329A4202D02046FFF703FA9DF873
:1058E000073094F8F92203F00F0332B193421EBF40
:1058F000D4F868230132C4F868230F2B14BF013396
:10590000012384F8F932D0E72DE9F0410446E03074
:1059100006F0EBF80C4E074600254FF00C087834E3
:10592000EBB29F420ED908FB05F39A19127A0AB915
:105930000135F5E79959204605F0EFFF0028F7D02B
:10594000BDE8F0810020FBE700FB040010B5044631
:10595000006837F011FEC1B2A06FBDE8104005F03D
:1059600056BD10B50446006838F06AF8C1B2A06FA1
:10597000BDE8104005F04BBD13B504460DF107011D
:10598000006837F073FE30B99DF80710A06F05F07E
:105990003EFD02B010BDFEF77BFF014604F178002A
:1059A00006F091F8F5E713B502A90023044601F8C3
:1059B000013DA83005F007FE20B99DF907102068C9
:1059C00037F063FE02B010BD13B504460DF10701B8
:1059D000006837F037FE30B99DF80710A06F05F06A
:1059E00016FD02B010BDFEF753FF014604F178002A
:1059F00006F069F8F5E713B502A90023044601F89B
:105A0000013DA83005F0DFFD20B99DF907102068A1
:105A100037F022FE02B010BDFEE7FEE710B50446E7
:105A20000BF09AF9FFF7AAF80146A06FBDE8104005
:105A300005F0EDBC10B5044600680AF0A9FE014669
:105A40002046BDE81040FFF7E3BB10B504460068F0
:105A50001BF070F901462046BDE81040FFF7D8BBA7
:105A600010B41346064A0446106828B10A46214677
:105A70005DF8044BFFF744B80D205DF8044B704708
:105A80009075002040F209539A4200F0A38500F27D
:105A90007D81492A00F0918400F2B680272A00F027
:105AA000058451D8092A00F0F78324D8042A00F08D
:105AB000388410D8012A4FF0000300F00D84C0F0A4
:105AC000E783022A00F02484032A00F0DD83002308
:105AD000C0E900337047062A4FF0000300F0D0837E
